:020000040000FA
:060000001DEF1BF01200D1
:0600080004EF08F01200F5
:060018000CEF08F01200DD
:061000001DEF1BF01200C1
:021006001200D6
:0610080016EF08F01200D3
:02100E000000E0
:0110100000DF
:0610180061EF08F0120078
:02101E000100CF
:0C1020000E100000FC00000003000000A7
:04102C00DACFE4FF34
:10103000E2CFDAFFE9CFE4FFEACFE4FFF6CFE4FF47
:10104000F7CFE4FFF5CFE4FFF3CFE4FFF4CFE4FF05
:10105000FACFE4FF00EE00F0100EE80403E3EECF59
:10106000E4FFFBD700EE10F0100EE80403E3EECF30
:10107000E4FFFBD7E65270EC10F0E55200EE1FF0F3
:10108000100EE80403E3E5CFEDFFFBD700EE0FF011
:10109000100EE80403E3E5CFEDFFFBD7E5CFFAFF41
:1010A000E5CFF4FFE5CFF3FFE5CFF5FFE5CFF7FFA1
:1010B000E5CFF6FFE5CFEAFFE5CFE9FFE5CFDAFFC1
:1010C0001100D8CFE4FFE0CFE4FFE46EDACFE4FF15
:1010D000E652E552E5CFDAFFE550E5CFE0FFE5CF98
:1010E000D8FF1000C5EC0CF045EC15F076EC0DF0D7
:1010F0008F0EE66E000EE66E8B0EE66E000EE66E4E
:10110000D9D9E552E552E552E5528FC0E6FF90C0CD
:10111000E6FF91C0E6FF92C0E6FF8BC0E6FF8CC001
:10112000E6FF8DC0E6FF8EC0E6FF76D8106E080E93
:10113000E15E1050DBD7F1EC0FF0FD0EDB50DF6EFF
:10114000D7EC0CF0FE0EDBCFE6FFE0EC0CF0E55246
:10115000DF6AFD0EDB04DF5C17E2E8EC0CF0E66E04
:10116000DFCF10F0116A10BE1168FB0EDB501024A7
:10117000E96EFC0EDB501120EA6EE552E750EF6E8F
:10118000F0EC0CF0DF2AE5D7E8EC0CF0E66EFD0E93
:10119000DB04E76E88EC0FF0E750E926000EEA2248
:1011A000E552E750EF6EFA0EDB5003E0F0EC0CF086
:1011B00002D0ECEC0CF0DDEC0CF0E552A8EF0EF0F8
:1011C000A3EC0EF0030EE126DBEC0EF0FE0EDBCFFF
:1011D000E6FF60EC0FF0E66A51EC0FF0020E6DECEA
:1011E0000FF000019351DE6EDD6ADECF10F0DDCF2F
:1011F00011F010C011F0106A10C0DEFF11C0DDFF49
:101200009451DF1277EC0FF0030EE15C02E2E16A29
:10121000E552E16EA8EF0EF0F1EC0FF00001706BFB
:10122000DF6ADFCF10F0100EE76E1018E8AE02D0C4
:10123000E73402D0E750105C0CE2DFCFE9FFEA6A46
:10124000E9BEEA68930EE926000EEA22EF6ADF2A79
:10125000E8D7DF6ADFCF10F0100EE76E1018E8AEA7
:1012600002D0E73402D0E750105C0CE2DFCFE9FF98
:10127000EA6AE9BEEA68600EE926000EEA22EF6A31
:10128000DF2AE8D751EC0FF0D950F70FC8EC0EF079
:1012900000016AEC0FF0500EEF6E702B51EC0FF066
:1012A00082EC0EF0540EEF6E702B51EC0FF0D95013
:1012B000FB0FC8EC0EF051EC0FF0000182EC0EF0C9
:1012C0000D0EEF6E702B6AEC0FF00A0EEF6E702BA6
:1012D0006AEC0FF0EF6AC8EC0FF08B82E552A8EFD2
:1012E0000EF0AA0EACEC0EF0F3CF75F0F4CF76F062
:1012F000AC0EACEC0EF0F3CF77F0F4CF78F0AE0E8E
:10130000ACEC0EF0F3CF79F0F4CF7AF0B00EACEC99
:101310000EF0F3CF7BF0F4CF7CF0B20EACEC0EF01D
:10132000F3CF7DF0F4CF7EF0B40EACEC0EF0F3CF43
:101330007FF0F4CF80F0B60EACEC0EF0F3CF81F07E
:10134000F4CF82F0B80EACEC0EF0F3CF83F0F4CF14
:1013500084F0BA0EACEC0EF0F3CF85F0F4CF86F04B
:10136000BC0EACEC0EF0F3CF87F0F4CF88F0BE0EDD
:10137000ACEC0EF0F3CF89F0F4CF8AF01200A3ECBE
:101380000EF0020EE126D9EC0FF02E0EE66E60ECA8
:101390000FF082AAFED7F60EACEC0EF0F3CF10F0F1
:1013A000F4CF11F0126A136A11AE02D012681368FA
:1013B00010C0DEFF11C0DDFF77EC0FF0020EE15C24
:1013C00002E2E16AE552E16EA8EF0EF0A3EC0EF046
:1013D000050EE126DE6ADE6ADE6ADD6ADD52DD5276
:1013E000D9EC0FF0040EDB6ADB50340FE76E040E0D
:1013F000E7CFDBFFDBCFE6FF60EC0FF082AAFED782
:10140000DBEC0EF0F60EE66E60EC0FF0E66A51ECE7
:101410000FF0030E6DEC0FF0000E93C0DFFF010E16
:10142000DB6A020EDB6A030EDB6AEFEC0EF004E00F
:1014300064EC0FF0E806FCE197EC0EF094C010F0BD
:1014400002EC0FF0EFEC0EF004E064EC0FF0E806B5
:10145000FCE197EC0EF095C010F002EC0FF0080ED6
:10146000F36E040EF3CFDBFFD9CFE9FFDACFEAFF4B
:10147000DB501F0BE6EC0FF0EECF13F007E0D89037
:101480001332123211321032E806F9E197EC0EF005
:10149000DECF06F0DECF07F0DECF08F0DDCF09F0BB
:1014A000DD52DD52050EE15C02E2E16AE552E16ED9
:1014B000A8EF0EF0A3EC0EF02A0EE12680EC0FF060
:1014C0008B805DDFF3CFDEFFF4CFDDFF7FDF020E29
:1014D00006C0DBFF030E07C0DBFF040E08C0DBFF06
:1014E000050E09C0DBFF7DC01CF07EC01DF01E6A2A
:1014F0001F6ADECF14F0DDCF15F0166A176A7FC0C1
:1015000018F080C019F01A6A1B6A1850145C106E2B
:1015100019501558116E1A501658126E1B50175844
:10152000136E0EEC10F0096E7DC00BF07EC00CF057
:101530001EC00DF01FC00EF0AFDB800EEDEC0FF003
:1015400089C014F08AC015F0166A176A15AE02D069
:1015500016681768D950060F56EC0FF087C010F0C8
:1015600088C011F0126A136A11AE02D012681368B3
:101570000B0E64EC0FF0E806FCE110C006F011C0A1
:1015800007F02AEC0FF0A4DB0E0E10C0DBFF0F0EED
:1015900011C0DBFF100E12C0DBFF110E13C0DBFF0A
:1015A0001DEC0FF0080E1026000E1122DFEC0FF0DC
:1015B000FD0EDBCFE9FFFE0EDBCFEAFF06C0EEFF3C
:1015C00011C0EEFF12C0EEFF13C0EEFF1DEC0FF0D6
:1015D000A00E105E0F0E115A000E125A135A120E60
:1015E00010C0DBFF130E11C0DBFF140E12C0DBFFB7
:1015F000150E13C0DBFF83C010F084C011F0126A17
:10160000136A11AE02D0126813688FEC0FF0080E47
:10161000EDEC0FF077C010F078C011F0126A136A89
:1016200011AE02D012681368A1EC0FF0080E19EC8D
:1016300010F04EDB160E10C0DBFF170E11C0DBFFE3
:10164000180E12C0DBFF190E13C0DBFF75C014F0BB
:1016500076C015F0166A176A15AE02D016681768BC
:10166000020ED8901436153616361736E806F9E10C
:10167000D950160FA6DB1A0E10C0DBFF1B0E11C0CF
:10168000DBFF1C0E12C0DBFF1D0E13C0DBFFD950A9
:101690001A0F15EC10F01A0EEECFDBFF1B0EEECF7B
:1016A000DBFF1C0EEECFDBFF1D0EEECFDBFF1A0EB5
:1016B000DBCF06F01B0EDBCF07F01C0EDBCF08F0F4
:1016C0001D0EDBCF09F0ACDB1A0E06C0DBFF1B0ED4
:1016D00007C0DBFF1C0E08C0DBFF1D0E09C0DBFFCF
:1016E00079C010F07AC011F0126A136A11AE02D0FC
:1016F00012681368A1EC0FF0200EEDEC0FF081C022
:1017000010F082C011F0126A136A11AE02D0126892
:1017100013688FEC0FF035DBDBCF10F0070EDBCF5B
:1017200011F0080EDBCF12F0090EDBCF13F0D95009
:101730000A0F15EC10F01050EE24066E1150EE203A
:10174000076E1250EE20086E1350EE20096E68DB13
:10175000160E06C0DBFF170E07C0DBFF180E08C011
:10176000DBFF190E09C0DBFF146A800E156E166AC6
:10177000176AD950160F9ADB7BC010F07CC011F0AD
:10178000126A136A7BC006F07CC007F063DB84DA60
:10179000800E19EC10F0D2EC1AF0220E06C0DBFF1E
:1017A000230E07C0DBFF240E08C0DBFF250E09C097
:1017B000DBFF020EDBCF14F0030EDBCF15F0040EBF
:1017C000DBCF16F0050EDBCF17F0D9501A0F15EC52
:1017D00010F0EE50145C106EEE501558116EEE5075
:1017E0001658126EEE501758136E260E10C0DBFFFF
:1017F000270E11C0DBFF280E12C0DBFF290E13C01D
:10180000DBFF260EDBCF06F0270EDBCF07F0280E1E
:10181000DBCF08F0290EDBCF09F0500E0B6EC30EA4
:1018200019EC10F066EC1AF0260E02C0DBFF270E52
:1018300003C0DBFF280E04C0DBFF290E05C0DBFF61
:10184000D950260FF2DB000EEE5C000EEE58000EB3
:10185000EE58800EEE5814E2260EDBCF14F0270E61
:10186000DBCF15F0280EDBCF16F0290EDBCF17F0FB
:10187000D8901436153616361736BBDA72DA16D00B
:10188000260EDBCF18F0270EDBCF19F0280EDBCFAA
:101890001AF0290EDBCF1BF018C006F019C007F0B4
:1018A0001AC008F01BC009F05CDA0EDBE0DA1E0E8D
:1018B000DBCF10F01F0EDBCF11F0200EDBCF12F0CC
:1018C000210EDBCF13F00B6A010E0C6E12DADCDA9C
:1018D0000B6A010E97DB66EC1AF0060E02C0DBFF06
:1018E000070E03C0DBFF080E04C0DBFF090E05C0B6
:1018F000DBFF060EDBCF06F0070EDBCF07F0080E8E
:10190000DBCF08F0090EDBCF09F0DE0E0B6E0B0EFD
:1019100090DBC2D90C6A010E0D6ECAD9B5DA430E3E
:101920000B6EE30E0C6E0D680E68B6D92ADADBCFAB
:1019300014F0070EDBCF15F0080EDBCF16F0090E02
:10194000DBCF17F0D9500A0F3CDACF0E10260E0E5F
:101950001122000E34DBD9501E0F10DB88DAD8DAE2
:101960001E0EDBCFEEFF1F0EDBCFEEFF200EDBCF18
:10197000EEFF210EDBCFEEFFC3DA8B902A0EE15C87
:1019800002E2E16AE552E16EE3D10F0EC1122CD8FA
:101990001DEF10F0F00EC6140809C66EC68A770E49
:1019A000C86E9E9612009EA6FED79E961200C58017
:1019B000D3EF0CF0C582D3EF0CF0C584D3EF0CF05D
:1019C000C2D9FE0EDB50C96EEEDFC5BCFED7C0D15A
:1019D000C586E9DFC9501200C58AC588D3EF0CF06F
:1019E000C59AC588D3EF0CF0FCDA1CD8DF6ADF504B
:1019F000106E116A100E105C000E115805E2DF50D7
:101A0000D2DAEF6ADF2AF3D70001706B716B736B68
:101A1000746BF00E8B169416BDDF63DC7E6A948ABD
:101A2000E55296D1DEDA7F6A938A939E240EAC6EDD
:101A3000900EAB6E710EAF6E020EB06E080EB86EE9
:101A4000AE50DF6EE55284D17ED9FE0EDB50AD6E16
:101A50007FD179D9040EE126D880000E02014055CD
:101A6000C20E4155010E4255000E43552BE340C2B4
:101A700068F241C269F242C26AF243C26BF2146A6E
:101A80001B0E156EB70E166E176A14C006F015C041
:101A900007F0086E17C009F068C20BF069C20CF0BD
:101AA0006AC20DF06BC20EF0D2EC1AF05EDA1006CC
:101AB000000E115A125A135A3AD9DF50AF6E010E66
:101AC000DB50B06E040EE15C02E2E16AE552E16EC9
:101AD0003FD187DAABA205D0AB98AE50DF6EAB88B2
:101AE00002D0AE50DF6EDF50E55232D1200E000141
:101AF000E76EA519E8AE02D0E73402D0E750A55D45
:101B00001AE36450020B01E012000001DA5111E106
:101B10000001705100080DE270C0E6FF600EE66E35
:101B2000000EE66E6DEC17F0E552E552E55200014D
:101B3000706BBEEC17F012000001FD51FE1104E1C4
:101B4000100EFD6F270EFE6FFD07000EFE5B64A2F8
:101B500007D0FD51FE112EE18B708BB013D027D032
:101B60000001A55102E18B9022D0A50502E18B80F6
:101B700009D0020EA55D02E18B8019D0040EA55D8F
:101B800003E18B908B821200100EA55D06E100012F
:101B9000FD51FE110FE18B700AD0200EA55D0AE108
:101BA0000001FD51FE1106E18B708BA002D08B92DB
:101BB00012008B82120012001200120012009EEF1F
:101BC00016F01200EEEF16F00001C80520E100014A
:101BD000C9051DE1A094F0DF64920001C96B00010A
:101BE000100EA36F0E0EA46FA307000EA45BA351EB
:101BF000A411FAE16484080EA36F070EA46FA30773
:101C0000000EA45BA351A411FAE16494A084120015
:101C10009AD8FD0EDBCF08F0FE0EDBCF09F0050EE3
:101C2000081801E1095036E0E868081802E17F0E63
:101C300009182FE0030E081801E1095028E0020EF0
:101C4000081801E1095021E0010E081801E10950CE
:101C50001AE0740E081801E1095013E0750E081817
:101C600001E109500CE0730E081801E1095005E08C
:101C7000720E08180FE109500DD09FDF0BD09BDFCB
:101C800009D09ADF07D09EDF05D09BDF03D097DF16
:101C900001D094DF010E5CD066EC1AF002C006F0B1
:101CA00003C007F004C008F005C009F00B6A120079
:101CB0000E6A9EEC1AF0060E06C0DBFF070E07C088
:101CC000DBFF080E08C0DBFF090E09C0DBFF1200B6
:101CD0003DD90A0EDBCF10F00B0EDBCF11F00C0E4E
:101CE000DBCF12F00D0EDBCF13F0D950060FBEEF95
:101CF0000FF00D6A0E6A92D913C009F09EEC1AF02B
:101D0000B5EF0FF07051116A600F106E000E1122C6
:101D100010C0E6FF11C0E6FF37EC1AF0E552E552BD
:101D2000E552E55235D90001F350D3EF0FF010C062
:101D3000DFFF010E11C0DBFF020E12C0DBFF030E3E
:101D400013C0DBFF1200D9CFE6FFE1CFD9FF1200AD
:101D5000E552E7CFD9FF1200E66EE0EC08F0E5525D
:101D60001200220EDBCF0BF0230EDBCF0CF0240E83
:101D7000DBCF0DF0250EDBCF0EF0D2EC1AF0B5EF75
:101D80000FF00C6A010E0D6E0E6AE0D8060E1200FE
:101D9000E96EFF0EDA20EA6EEECFE6FFEECFE6FF49
:101DA000EECFE6FFEFCFE6FF94EC18F0106E060ED4
:101DB000E15E10501200FBDDEE0EE66E01DEE55234
:101DC000120033D91450EE24106E1550EE20116E0F
:101DD0001650EE20126E1750EE20136E1200D9CF5F
:101DE000E9FFDACFEAFFF2D8EFCF13F0080E1F0BAE
:101DF000120014C006F015C007F016C008F017C096
:101E000009F01200116A126A136A1050DE121150A2
:101E1000DE121250DE121350DD12DD52DD521200BE
:101E2000020E0626000E072208220922040E0B6E5F
:101E30000C6A0D6A0E6A9EEF1AF00E0EDBCF10F0E0
:101E40000F0EDBCF11F0100EDBCF12F0110EDBCF37
:101E500013F0120012C008F013C009F014C00BF008
:101E600015C00CF016C00DF017C00EF012001E0EBB
:101E700010C0DBFF1F0E11C0DBFF200E12C0DBFF06
:101E8000210E13C0DBFF12001E0EDBCF06F01F0E6B
:101E9000DBCF07F0200EDBCF08F0210EDBCF09F0FF
:101EA0001200930EE66E000EE66E1200BED8EE50E3
:101EB0001426EE501522EE501622EE501722120074
:101EC0007FDDE552DDEF0CF0D8901036113612367A
:101ED000133612007051D3EF0FF0E66EEF0EE66E80
:101EE0009BEC08F0106E050EE15E10501200DECF84
:101EF00010F0DDCF11F010C0F3FF11C0F4FF12009D
:101F0000C80EE66EE66AF6EC1AF0E552E5521200EB
:101F1000FB0EDBCFE9FFFC0EDBCFEAFF1200120E57
:101F2000DBCF14F0130EDBCF15F0140EDBCF16F061
:101F3000150EDBCF17F05DDF57D8100E63D84CEFCE
:101F40000EF06CD813C009F0F4EF0FF09EEC1AF00D
:101F50000A0E06C0DBFF0B0E07C0DBFF0C0E08C02D
:101F6000DBFF0D0E09C0DBFF120006C010F007C03A
:101F700011F008C012F009C013F0120056D8EE504C
:101F80001026EE501122EE501222EE5013221200B3
:101F9000600EE66E000EE66E58EC1AF0E552E55261
:101FA000F3CF70F01200EA6A600FE96E000EEA22C9
:101FB000120001DFF40EE66E03DDE552120012227C
:101FC0001322100E0B6E0C6A79EF0EF0EECF10F0AC
:101FD000EECF11F0EECF12F012000C6E0D6A58EF3A
:101FE0000EF0B1DEE6521200120EDBCF0BF0130E34
:101FF000DBCF0CF0140EDBCF0DF0150EDBCF0EF0A7
:102000004CEF0EF016D89EEC1AF010C00BF011C079
:102010000CF012C00DF013C00EF0120010C006F04C
:1020200011C007F012C008F01200E96EDACFEAFF23
:0A20300012000C6E0D6A0E6A120019
:06203A0069EC16F0A09411
:102040000F015F6B626A536BB3EC15F0E9EC15F0AE
:10205000DF6AF1EC15F003E299EC15F0FAD7648C25
:102060000F015C6B6498649C62A607D062960001C5
:10207000BC6BC16BC26BC36BF7D70001010ED56F90
:10208000D66FD76BD86BC96BDF6A030EDF5C11E2CA
:10209000EA6ADF346CEC16F0EA22EE6AED6AEA6A6C
:1020A000DF3473EC16F0EA22EE6AED6AA9EC15F063
:1020B000ECD70001080EB26F020EB36F0F01160EBF
:1020C000536F0201300E026F020E036F080E016F94
:1020D000840E006F0001A66BA56BE55273EF15F03F
:1020E00069EC16F00001A50507E164BA05D0626A43
:1020F00060806088020EA56F6250040B05E060509E
:10210000040B02E062949AD864B246D06250010B8C
:1021100009E06050010B06E090DFA0840001040E8E
:10212000A56F62906250100B05E06050100B02E04A
:102130007AD8629862AC0FD060AC05D008EC16F08B
:10214000730E60EC15F0629C0001D35101E0D307DF
:10215000D35101E125DA6250200B04E06050200BDE
:1021600001E04DD86250020B0CE06050020B09E018
:1021700008EC16F0E6687F0EE66E7AEC16F00F01BA
:102180005F6B040E0001E76EA519E8AE02D0E734DC
:1021900002D0E750A55D02E2A1942ED060A62BD01C
:1021A000DF6A040EDF5C27E262A625D063CFCAF0A7
:1021B0000001CA51780BE842E842E842CB6F6296D0
:1021C000CAB504D0CB5181EC16F003D0CB5186ECCC
:1021D00016F0EA22EF70CB5102E13ED80AD0000E91
:1021E000E66EE66ACA0EE66E000EE66E720E60ECF1
:1021F00015F0DF2AD6D7A194E55273EF15F00F0141
:1022000053A10FD07FEC15F0EF50800809E169EC85
:1022100015F0EF50840804E17FEC15F08C0EEF6EA2
:102220005391629A12006084629864820001010EE8
:10223000C96FCFEC15F0750E60EF15F00001C96B9A
:10224000CFEC15F0740E60EC15F06492609462A40B
:1022500002D06294FCD7120069EC16F000012D0E3A
:10226000D36FFD0ECA1540E17E0ECA15E8407F0B04
:10227000040DF3CFA8F0F4CFA9F0000EA827020EAA
:10228000A923A8C0AAF0A9C0ABF0AA757FEC15F0ED
:10229000EF503C0BE842E8420D0824E1DF6A080EEB
:1022A000DF5C1AE27FEC15F0020EE926000EBCECB2
:1022B00015F0EF50E66EDF50EA6A300FE96E020E5D
:1022C000EA22E552E750EF6E7FEC15F095EC16F040
:1022D000EE2AEF22DF2AE3D77FEC15F035EC16F07B
:1022E0000BD807D026D805D0FD0ECA15040801E189
:1022F0002FD8E55273EF15F00001B86BD46BD76B94
:10230000D86BCC6BB96BE5DBEF9EB275E2DBEF9E71
:10231000B27524EC16F0EF9EBC6BBD6BBE6BC16B4F
:10232000C26BC36B53D8CFEC15F0030EC9DB8AEF39
:1023300013F0020E0001B95D02E1F6EF13F0B96B84
:10234000CC5104E1B4DB8C0EEF6E1200CC6B1200AA
:1023500069EC16F0BEDBEF50400B01E0010EDF6EC2
:102360000001B275080EA55D0BE132C25CFF0F01E2
:102370005C5103E00001100E02D00001040EA56FB5
:10238000B90513E1A6DBC0DBF2D9020E0001B85D8E
:1023900003E19FDB840E07D0DF5003E19ADBC80E18
:1023A00002D097DB880EEF6E0FD0C1AF0CD0C451B6
:1023B000C51107E005D0C5C0FAFF0001C451F96E90
:1023C000FADF0001C19FB96BE5528DD30201305194
:1023D000600BE842E842E842E842E842000901E0D6
:1023E000120031510C0A45E00B0A3FE00C0A31E0C3
:1023F000010A22E00B0A1EE0020A1CE0030A18E0B0
:10240000080A10E0010A0CE00F0A08E0030A01E0E4
:1024100012000001BC8F080EA56F120012EF13F01E
:102420005AEF14F00001A60EBA6F000EBB6F0CD06D
:102430004FEF13F03AEF12F034510001BA6FBB6B5B
:10244000A70EBA27000EBB23BC81010EBD6FBC8F47
:1024500012000001BC8F02013451EA6AA70FE96E35
:10246000000EEA2232C2EFFF120099DB020E60EF8B
:1024700015F0120033DB050EE1260201320510E1F2
:1024800030511F0B00090CE10001BC8F030E02014B
:10249000315D04E10001010EC86F02D00001C86B7C
:1024A0000201325101E075D030511F0B020871E179
:1024B00034510F0B00096DE034510F0B020869E332
:1024C000200E0001A55D65E1BC8F020134BF04D080
:1024D000E7DB6BDB70DB03D0E8DB67DB70DBEA227A
:1024E000020EEFCFDBFF9BDB010B03E1000EDF945D
:1024F00001D0DF8434BF02D0D3DB01D0D6DBEA22A7
:10250000DECFEEFFDDCFEDFF030E315D0DE1D2DB5F
:1025100007E034BF02D04FDB01D051DBEA22EF826B
:10252000840E9AEC16F035D0DF74C4DB06E0CCDA0A
:10253000EF9ECADAEF8CA3DB02D0C6DAEF8CDF7431
:102540006EDB020B02E1B6DB0DE0020134BF02D00C
:1025500032DB01D034DBEA22EF923B0E106EDBDB84
:102560008EDB02D03B0ED7DB020134510F0B116A18
:10257000530F106E0F0E1122030E10C0DBFF040E5E
:1025800011C0DBFF030EDBCFE9FF040EDBCFEAFF58
:10259000EF90050EE15C02E2E16AE552E16EA3D242
:1025A0000001D55121E1010ED56FD6511DE1010E7B
:1025B000D66F020EB95D07E18CDAEE52EF6A89DA66
:1025C000C80EEF6E1200B9050FE1CC6B98DAEE522F
:1025D000080EEF6E94DA49DB92DA840EEF6E010E8C
:1025E000CC6F65DA800EEF6E12000001D76BD86BEE
:1025F000020EB95D04E193DB87DA26DB10D0BD5112
:102600000201365D0001BE510201375904E236C2B3
:10261000BDF037C2BEF0ABD85CDA76DA5ADAC80E53
:10262000EF6E1200800E0201305D38E10001C00E35
:10263000BC6F02013351030A1AE0010A09E0030AE0
:102640002BE10001D20EBA6F320EBB6F120E1ED0FC
:10265000F4DA930EF626330ECCDA020E0001E6DA37
:10266000F5CFBDF0030EE2DAF5CFBEF01200030E97
:10267000325D0FE2E2DA950EF626330EBADABAC010
:10268000F6FFBBC0F7FF0800F5500001BD6FBE6B41
:1026900012000001BC6B12000001BC6B1200EBDAEF
:1026A0000201386B396B30511F0B020A11E0030A2B
:1026B0000CE0010A1EE10001BC8F0201388100011B
:1026C000C80517E10201388314D00001BC8F11D076
:1026D0000001BC8F020134BF02D0E2DA01D0E5DA9A
:1026E00064DAE8DA06E0F0D9EF50040B02E0010EFC
:1026F000386F0001BCAF07D0380EBA6F020EBB6F47
:10270000BC81020EBD6F020EE15C02E2E16AE5529D
:10271000E16EE9D164980001BCBF0DD0C1AF09D012
:10272000020EB96FD85101E160DF0001D66BD56BA5
:10273000120049EF16F0020130AF0DD00001010E7A
:10274000B96FD75101E151DF0001D66BD56BD45180
:102750000DE1D0EF12F00001020EB96FA8D9840E7E
:10276000EF6ED66BD56BD45101E11ADF1200B1DAEE
:10277000080EDF6E0001BD5D000EBE590AE2BDC04D
:10278000DFFFB85102E1010E03D0B80502E1020EED
:10279000B86FDF50116AE850BD5DBD6F1150BE5972
:1027A000BE6F97D9EE52DFCFEFFF380EC66F020E25
:1027B000C76FBCB10DD0DF5017E0BAC0F6FFBBC089
:1027C000F7FFBA2B000EBB230800F550DBD9F3D777
:1027D000DF500AE0BAC0E9FFBBC0EAFFBA2B000E27
:1027E000BB23EF50CFD9F4D7E5527DD144DA87D956
:1027F000EE52EFCFDFFFDFCF10F010500001C25DCF
:10280000000EC35902E2C2C0DFFFDF50106E116A32
:10281000E850C25DC26F1150C359C36F010EDB6A2D
:10282000DF50F36E010EDBCFF4FFF350F45C16E2E1
:10283000010EDB50EA6A380FE96E020EEA22EF5011
:10284000E66EBFC0E9FFC0C0EAFFBF2B000EC02389
:10285000E552E750EF6E010EDB2AE2D7000ED8807A
:10286000C255000EC3550DE25ADA4ED948D9EF5081
:10287000400B03E1E9D9C80E02D0E6D9880EEF6E0D
:1028800012D015D9840EEF6EC451C51107E005D0E2
:10289000C5C0FAFF0001C451F96EFADF0001C19F03
:1028A000D45101E17DDE020EE15C02E2E16AE55213
:1028B000E16E19D10EDA0001BC8F55D9DF6A91D9CA
:1028C00002E237D9FCD7648CDF6A030EDF5C02E2D8
:1028D00040D9FBD7010EE66EE66AE66AA70EE66E01
:1028E000000EEFD9649C0001080EB26F020EB36FA8
:1028F000000EA86F020EA96FA8C0AAF0AB6F32C27B
:10290000A6F0A65102E1100E0BD0010EE66EE66AAB
:10291000A60EE66E000EE66E010ED2D80001200E65
:10292000A56FE552E0D0A7D9000EDE6E020EDD6E77
:10293000F1D8040DF4CF11F0D9CFE9FFDACFEAFFD7
:10294000F350EE261150ED22BFD8EF9EFD0EDB5066
:1029500002E1EAD801D0AFD8EA22DECFEEFFDDCF28
:10296000EDFFB2D8EF9CB0D8040EE926000EEA22A3
:10297000EF8C020EE15C02E2E16AE552E16EB3D057
:102980007AD9FD0EDBA402D0E66A3BD9FD0EDBA2AC
:1029900003D0010EE66E35D9FE0EDB50116A530FDF
:1029A000106E0F0E10D990D8FD0EDBCFEFFF020E88
:1029B000E15C02E2E16AE552E16E95D05CD9FE0E7F
:1029C000DB5002E166D905D0A5D843D9A3D8010FC1
:1029D00040D9020EE15C02E2E16AE552E16E83D089
:1029E0004AD9FD0EDB5002E066D801D09DD8DDD873
:1029F000D9CFE9FFDACFEAFFEE50ED1003E1F36A39
:102A0000F46A21D061D891D9FB0EDBCFEEFFFC0E2A
:102A1000DBCFEDFF59D8EE52FA0EDBCFEFFF400EC1
:102A20007AD9880E87D9FD0EDB5002E044D801D058
:102A30007BD8EA22EF74DECF10F0DDCF11F010C0AA
:102A4000F3FF11C0F4FF020EE15C02E2E16AE5521D
:102A5000E16E49D043D864A812D030D9400EEE16AA
:102A6000EE6AEE6AEE6A2AD9EE7C25D8EA22EF7485
:102A7000400E106E23D91050EF1620D9EF7C33D0C2
:102A8000646A606A0001A56B12000001A5510EE1A5
:102A9000646A606A9ED8D08EA284A084F28E64B6E6
:102AA00002D06486FCD70001010EA56F120037D951
:102AB000DCD824EF16F0FE0EEA6ADB346CEF16F079
:102AC000E66EE66A7AEF16F0DECFE9FFDDCFEAFFC9
:102AD0001200B2C0E9FFB3C0EAFF1200D9CFE6FF8F
:102AE000E1CFD9FF1200E552E7CFD9FF12003451F0
:102AF0000F0BE96EEA6AD890E936EA361200A8C0F0
:102B0000E9FFA9C0EAFF120010D9380EEE6E020EDE
:102B1000ED6E1200FD0EDB50E824126EFE0EDB504F
:102B2000040DF35012241200FE0EEA6ADB3473EF38
:102B300016F0DF50040DF3CFE9FFF4CFEAFF000EEB
:102B4000E926020EEA22EE6AEE6AEE6AEE6ADF2AF1
:102B50001200DF50DBD8EA22EF6ADF50D2D8EA2237
:102B6000EF6ADF2A1200020EE66EE66AE66A540E8B
:102B7000E66E0F0E61EF16F0EA22EE50EFCFEAFF9D
:102B8000E96E1200E66EC6C0E9FFC7C0EAFFC62BB9
:102B9000000EC723E552E750EF6EDF061200000E6D
:102BA000E66EE66AE66EE66A1200EA22EECFDEFF25
:102BB000EDCFDDFF120034510F0B81EF16F03451D1
:102BC0000F0B86EF16F0112210C0DEFF11C0DDFFE3
:102BD0001200160E616E0F019F0E5B6F7B0E606E12
:102BE0001200DF50106E116A0C0E105C000E1158AE
:102BF0001200F7220900F5CFBAF00A00F5CFBBF0BA
:102C00001200FE0EDBCFE6FF8EDEE552E55212002B
:102C1000010EE66EE66A000EE66EE66A1200D95014
:102C2000020FE96EDACFEAFFEF501200F76ABA2519
:102C3000F66EBB51F722080012003251F66EF76AA9
:102C4000D890F636F7361200AAC0E9FFABC0EAFF0B
:102C50001200040DF3CF10F0F4CF11F0000E102687
:102C6000020EB1DF840E9AEF16F05FD8300EEE6ED2
:102C7000020EED6E120032DF020EE1261200020E8D
:102C8000E66EE66ADECFE6FFDDCFE6FF050E60EF1B
:102C900015F00DDF8C0EEF6E1CDF840EEF6E120050
:102CA00026DFAC0EE926000E120021DFB20EE92667
:102CB000000E120009DFEF50800B1200FCDEBCEFAB
:102CC00015F0E66E1DEC1AF0106E050EE15E105068
:102CD000120004DFE6521200FE0BEA36E96EB20E75
:102CE000E926000E1200FE0BEA36E96EAC0EE9266C
:102CF000000E120008EC0EF0106E060EE15E105091
:102D00001200EA6AD00FE96E000E1200EA6ACD0FD7
:102D1000E96E000E1200D8DEE850EF16120094DFC4
:102D2000EE52080EEF6E24EF16F0020EE926000EAA
:0C2D3000EA221200C9DEE850EF12120087
:042D3C00020130510F
:102D40001F0B010801E012003051600BE842E8421D
:102D5000E842E842E842010801E01200345103E091
:102D6000340501E012003151220A33E0030A26E063
:102D7000010A15E0210A0DE0010A01E0120000013C
:102D8000EA0EBA6F000EBB6F080EBD6FBE6BBC8142
:102D900023D00001EA0EBA6F000EBB6F1DD036C201
:102DA000C2F037C2C3F00001400EBF6F020EC06F09
:102DB000520EC46F1A0EC56FC18F12000001680E4B
:102DC000BA6F020EBB6F070EBD6FBE6BC10EBC6F3C
:102DD000120032C2E5F00001BC8F12000201686BE4
:102DE0004B0E696F6A6B6B6B6C6B6D6B080E6E6F65
:102DF0000001D96B1A0EE66E010EE66EC0EC14F0FF
:102E0000E552E5521E0EE66E020EE66EC0EC14F0C0
:102E1000E552E55224D90001E36BE46BDA6B120052
:102E200049D97BD9050E081801E1095002E0000ECE
:102E300014D050D90001E151101804E1E2511118E9
:102E400001E10DD947D90001E351101805E1E45122
:102E5000111802E1DA6BDF6B010E31D12BD90001C1
:102E6000D96BE151E21102E1000E05D041D9EF50DA
:102E7000800B01E0010E00092DE1FC0EDBCF10F00C
:102E800037D9EE52EF50D880105405E231D9EE52C6
:102E9000FC0EEFCFDBFFD96BFC0EDB50D95D19E2E6
:102EA000D951EA6A480FE96E020EEA22EF50E66E47
:102EB000D951E76EFD0EDBCFE9FFFE0EDBCFEAFF57
:102EC000E750E926000EEA22E552E750EF6ED92BD3
:102ED000E3D7C5D80001D951F2D0ECD8A0940001B5
:102EE000DA5107E1F0D8FC0EDBCFDFF0010EE06F26
:102EF000DA6FA084E4D00AD917E1C6D8F2D802E18B
:102F000011500BE0010EDBCFE9FFDB2A020EDBCF15
:102F1000EAFF01E3DB2AEF50F1E1D5D8DFCFDFF0A4
:102F20000001010EE06FDA6FA084030EE15C02E2A3
:102F3000E16AE552E16EC3D0E9D818E1A5D8D1D84D
:102F400002E111500CE0010EDBCFF6FFDB2A020E8E
:102F5000DBCFF7FF01E3DB2A0800F550F0E1B3D83F
:102F6000DFCFDFF00001E06B010EDA6FA084030E0B
:102F7000E15C02E2E16AE552E16EA1D09BD8020E6B
:102F8000E126A0940001E351E41102E1000E08D013
:102F9000E3C0E9FFE4C0EAFFEF50800B01E0010E5F
:102FA000000906E1030EDA5D01E1DA6BDA5102E1B4
:102FB000A0844ED0020EDA5D09E1E66A000EE66EEC
:102FC000E66A5AD80001030EDA6F41D0DA053FE114
:102FD000100E106E116ADF51105C000E115803E2E2
:102FE000100EDF6E02D0DFC0DFFFDF50DF5DDF6F6E
:102FF000580EDD6F020EDE6F010EDFCFDBFFE051FA
:103000000BE1010EDB5012E0DBC0F6FFDCC0F7FF86
:103010000800F55042D8F5D7010EDB5007E0DBC0C1
:10302000E9FFDCC0EAFFEF5038D8F6D70001DF51E6
:1030300007E1100EDF5C02E1020E01D0030EDA6F31
:10304000DFCFE6FF580EE66E020EE66E15D8A084BE
:10305000020EE15C02E2E16AE552E16E30D0100E50
:10306000E66E480EE66E020EE66EE66A46D8F3CFCE
:10307000E1F0F4CFE2F01200010EE66E3ED8F3CF9D
:10308000E3F0F4CFE4F01200DF6A47D8DE5208C064
:10309000DEFF09C0DDFFDD521200DDC0E9FFDEC04A
:1030A000EAFFEF6EDD2B000EDE23DB2BDC23010EAF
:1030B000DB061200D9CFE6FFE1CFD9FF1200E552BF
:1030C000E7CFD9FF1200FD0EDBCFDBF0FE0EDBCF2A
:1030D000DCF01200FB0EDBCF10F0FC0EDBCF11F0AA
:1030E0001200DF2ADF50106E116AFF0E1018120056
:1030F000E1C0E9FFE2C0EAFF1200020EE66EF0EC6A
:1031000014F0106E050EE15E10501200D3DF030EB6
:10311000E126A0940001DA511200FD0EDBCF08F089
:08312000FE0EDBCF09F01200E6
:08312800D9CFE6FFDACFE6FF84
:10313000F80EE3CFD9FFF90EE3CFDAFFFD0EE3522D
:1031400015E72D0EDE6EFA0EE31EFB0EE31EFC0EDF
:10315000E31EFD0EE31EFA0EE32A08E1FB0EE32A4E
:1031600005E1FC0EE32A02E1FD0EE32AE652E652F7
:10317000E652E652E652FB0EE124E76EFF0EE22035
:10318000E46EE652F30EE3CFE6FFF30EE3CFE6FF85
:10319000F30EE3CFE6FFF30EE3CFE6FF31EC19F0D9
:1031A000F50EE124E96EFF0EE220EA6E1EEC19F046
:1031B00019E121EC19F018E11EEC19F017E121ECEE
:1031C00019F016E11EEC19F015E121EC19F014E1EB
:1031D0001EEC19F013E121EC19F012E11EEC19F0CC
:1031E00011E112D027EC19F02CEC19F027EC19F0B2
:1031F0002CEC19F027EC19F02CEC19F027EC19F055
:103200002CEC19F027EC19F02CEC19F0DE6AF50E15
:10321000E126FF0EE222FF0EE3CFDAFFE552FF0EBA
:10322000E3CFD9FFE552FA0EE124E96EFF0EE2206A
:10323000EA6EEECFF3FFEFCFF4FF1200EF380F0B83
:103240001200EF500F0B02E1EE52D8841200EF385B
:103250000F0B300FDE6E1200EE500F0B300FDE6ED4
:103260001200FA0EE3CFE9FFFB0EE3CFEAFF200ED8
:10327000E66EEE6AEE6AEE6AEE6AEF6AD890FB0ED0
:10328000E336FC0EE336FD0EE336FE0EE336ED3696
:10329000ED36ED36ED36EF36FF0EE3060FE060EC6F
:1032A00019F0EE5260EC19F0EE5260EC19F0EE52AB
:1032B00060EC19F0EE5260EC19F0E1D7E56E120007
:1032C000030EEF24E8B6EF6E300EEF24E8BEEF6E8B
:0232D000000CF0
:0E32D2001201000202000008D8040A000001E8
:1032E0000102000109024300020100C0320904008A
:1032F000000102020100052400100104240202055D
:1033000024060001052401000107058103080002CD
:1033100009040100020A0000000705020240000043
:10332000070582024000000403090434034D0069CC
:1033300000630072006F0063006800690070002085
:103340000054006500630068006E006F006C006F41
:103350000067007900200049006E0063002E0034F1
:10336000034300440043002000520053002D00326C
:103370000033003200200045006D0075006C0061D4
:1033800000740069006F006E002000440065006D4D
:0B339000006F00E43227332B335F3363
:04339C001E0EF66E9D
:1033A000100EF76E000EF86E00010900F550F76F71
:1033B0000900F550F86F03E1F76701D03DD009002F
:1033C000F550F26F0900F550F36F0900F550F46FF6
:1033D00009000900F550E96E0900F550EA6E090090
:1033E00009000900F550F56F0900F550F66F090066
:1033F0000900F6CFF9F0F7CFFAF0F8CFFBF0F2C002
:10340000F6FFF3C0F7FFF4C0F8FF0001F55302E147
:10341000F65307E00900F550EE6EF507F8E2F607FF
:10342000F9D7F9C0F6FFFAC0F7FFFBC0F8FF0001BB
:0A343000F707000EF85BBFD712008B
:06343A00FE0EE3CFE9FFE6
:10344000FF0EE3CFEAFFE9CFF3FFEACFF4FFFB0E75
:10345000E35003E1FC0EE35009E0FB0EE30602E259
:10346000FC0EE306FD0EE350EE6EF1D71200D9CF4D
:10347000E6FFDACFE6FFFA0EE3CFD9FFFB0EE3CF8C
:10348000DAFFFC0EE3CFE9FFFD0EE3CFEAFFE9CF61
:10349000F3FFEACFF4FFDECFEFFFEE66FCD7FF0EBF
:1034A000E3CFDAFFE552FF0EE3CFD9FFE55212007A
:1034B000FE0EE3CFE9FFFF0EE3CFEAFFF36AF46A03
:0C34C000EE5203E0F34AF42AFBD712009E
:0434CC0006500B0299
:1034D000F3CF02F0F4CF03F00C02F3500326000EFA
:1034E000F420046E06500D02F3500426000EF42062
:1034F000056E06500E02F350052607500B02F350DE
:103500000326F4500422000E052207500C02F3504B
:103510000426F450052207500D02F35005260850EA
:103520000B02F3500426F450052208500C02F3500D
:0C353000052609500B02F350052612007E
:04353C00006AE86ACF
:103540000EAEABEF1AF00B6C0C1E0D1E0E1E0C22F5
:103550000D220E22001E09AEB6EF1AF0066C071EF1
:10356000081E091E072208220922001ED2EC1AF0AA
:1035700009BECDEF1AF000AE000C066C071E081E47
:10358000091EE86A072208220922026C031E041E93
:10359000051E032204220522000C00BEBDEF1AF016
:0435A0000188FF0C93
:0C35A400056A046A036A026A200EE76EE2
:1035B000D890063607360836093602360336043602
:1035C00005360B50025C0C5003580D5004580E5039
:1035D000055809E30B50025E0C50035A0D50045A73
:0C35E0000E50055A062AE72EE4D7120010
:0435EC00FF0EE3509B
:1035F000216EEF0E01D0F30EE76EE72EFDEF1AF00D
:103600000C0E206EE76AE72E03EF1BF0202E02EF70
:0A3610001BF0212EFBEF1AF0120050
:06361A00000EF36E00EE4D
:1036200000F0030E01D81200EA6002D0EE6AFCD767
:0A363000F350E9601200EE6AFCD7C7
:06363A0011EE00F021EE8C
:1036400000F0F86A019CCEEC19F003EC08F072EC83
:0636500008F0FBD7120098
:020000040030CA
:0100000000FF
:0100010032CC
:0100020021DC
:010003001EDE
:0100050000FA
:010006008178
:0100080003F4
:01000900C036
:01000A0003F2
:01000B00E014
:01000C0003F0
:01000D0040B2
:00000001FF
